:020000040800F2
:1000000000000220A10B0008E90B00080D6E00089B
:10001000E90B0008E90B0008E90B000800000000EC
:10002000000000000000000000000000E90B0008D4
:10003000E90B000800000000E90B0008916D0008C2
:10004000E90B0008E90B0008E90B0008E90B0008C0
:10005000E90B0008E90B0008E90B0008E90B0008B0
:10006000E90B0008E90B0008E90B00089969000892
:10007000A5690008E90B0008B1690008BD6900081E
:1000800075030108C95E0008E90B0008E90B0008C8
:10009000E90B0008E90B0008E90B0008E90B000870
:1000A000E90B0008E90B0008E90B0008E90B000860
:1000B00035F7000841F700084DF70008FD5E00081D
:1000C000E90B0008095F0008E90B0008A5EF00082C
:1000D000B1EF0008A9010108D90101080D020108CA
:1000E000E90B0008E90B000800000000E90B00081C
:1000F000E90B0008E90B0008E90B0008E90B000810
:10010000E90B0008E90B000859F70008BDEF0008EB
:100110004102010875020108E90B0008E90B00081B
:10012000E90B0008E90B0008E1EF000815F00008F2
:10013000A9030108E90B0008E90B0008E90B000816
:1001400000000000000000000000000000000000AF
:10015000E90B0008E90B0008E90B0008A9020108F7
:10016000155F0008E90B0008A16D0008C56D0008C7
:10017000E90B0008E96D0008E90B0008E90B00082D
:10018000E90B0008E90B0008DD0201080D03010876
:10019000C9EF0008D5EF0008E90B0008E90B0008DB
:1001A000E90B0008E90B0008E90B0008E90B00085F
:1001B000B9660008E90B0008E90B0008E90B000824
:1001C000E90B0008E90B0008E90B0008E90B00083F
:1001D000E90B0008E90B0008E90B0008E90B00082F
:1001E000E90B0008E90B0008E90B0008E90B00081F
:1001F000E90B0008E90B0008E90B0008E90B00080F
:10020000E90B0008E90B0008E90B0008E90B0008FE
:10021000E90B0008E90B0008E90B0008E90B0008EE
:10022000E90B0008E90B0008E90B000800000000DA
:10023000E90B0008E90B000800000000E90B0008CA
:10024000E90B0008E90B0008E90B0008E90B0008BE
:10025000E90B0008E90B0008E90B0008E90B0008AE
:10026000E90B0008E90B0008E90B0008E90B00089E
:10027000E90B0008E90B0008410301080000000039
:10028000E90B0008E90B0008E90B0008000000007A
:0802900000000000E90B00086A
:1002980010B5054C237833B9044B13B10448AFF3B8
:1002A80000800123237010BD90100024000000007E
:1002B8002037010808B5034B1BB103490348AFF3C6
:1002C800008008BD000000009410002420370108B9
:1002D80053B94AB9002908BF00281CBF4FF0FF31A5
:1002E8004FF0FF3000F074B9ADF1080C6DE904CEA1
:1002F80000F006F8DDF804E0DDE9022304B07047F9
:100308002DE9F047089D04468E46002B4DD18A42C0
:10031800944669D9B2FA82F252B101FA02F3C2F1F3
:10032800200120FA01F10CFA02FC41EA030E944084
:100338004FEA1C48210CBEFBF8F61FFA8CF708FBA5
:1003480016E341EA034306FB07F199420AD91CEB7D
:10035800030306F1FF3080F01F81994240F21C81AF
:10036800023E63445B1AA4B2B3FBF8F008FB1033F7
:1003780044EA034400FB07F7A7420AD91CEB04042C
:1003880000F1FF3380F00A81A74240F207816444FC
:10039800023840EA0640E41B00261DB1D440002381
:1003A800C5E900433146BDE8F0878B4209D9002DE5
:1003B80000F0EF800026C5E9000130463146BDE86F
:1003C800F087B3FA83F6002E4AD18B4202D38242D9
:1003D80000F2F980841A61EB030301209E46002D88
:1003E800E0D0C5E9004EDDE702B9FFDEB2FA82F2DD
:1003F800002A40F09280A1EB0C014FEA1C471FFA3B
:100408008CFE0126200CB1FBF7F307FB131140EA21
:1004180001410EFB03F0884208D91CEB010103F1EE
:10042800FF3802D2884200F2CB804346091AA4B2B0
:10043800B1FBF7F007FB101144EA01440EFB00FE84
:10044800A64508D91CEB040400F1FF3102D2A645E9
:1004580000F2BB800846A4EB0E0440EA03409CE788
:10046800C6F12007B34022FA07FC4CEA030C20FA35
:1004780007F401FA06F31C43F9404FEA1C4900FA55
:1004880006F3B1FBF9F8200C1FFA8CFE09FB1811D2
:1004980040EA014108FB0EF0884202FA06F20BD945
:1004A8001CEB010108F1FF3A80F08880884240F295
:1004B8008580A8F102086144091AA4B2B1FBF9F0D9
:1004C80009FB101144EA014100FB0EFE8E4508D9D4
:1004D8001CEB010100F1FF346CD28E456AD9023859
:1004E800614440EA0840A0FB0294A1EB0E01A1423E
:1004F800C846A64656D353D05DB1B3EB080261EBAC
:100508000E0101FA07F722FA06F3F1401F43C5E985
:10051800007100263146BDE8F087C2F12003D840BB
:100528000CFA02FC21FA03F3914001434FEA1C47FD
:100538001FFA8CFEB3FBF7F007FB10360B0C43EAEF
:10054800064300FB0EF69E4204FA02F408D91CEB9F
:10055800030300F1FF382FD29E422DD9023863449D
:100568009B1B89B2B3FBF7F607FB163341EA03413D
:1005780006FB0EF38B4208D91CEB010106F1FF388C
:1005880016D28B4214D9023E6144C91A46EA004683
:1005980038E72E46284605E70646E3E61846F8E615
:1005A8004B45A9D2B9EB020864EB0C0E0138A3E75E
:1005B8004646EAE7204694E74046D1E7D0467BE73F
:1005C800023B614432E7304609E76444023842E7B7
:1005D800704700BF80B582B000AF786039603A6874
:1005E8000121504800F076FD0346002B00F0908072
:1005F8004C4B1B6803F5A5434B4A9360494B1B685A
:1006080003F5A543484AD360464B1A6845F670532C
:100618001344464A9360434B1A6845F67053134493
:10062800424AD3603F4B1B6803F59C53404A936092
:100638003C4B1B6803F59C533D4AD360394B1B6800
:1006480003F59C533B4A9360364B1B6803F59C5358
:10065800384AD360334B1A6845F670531344364A08
:100668009360304B1A6845F670531344324AD3608E
:100678002C4B1B68314A93602A4B1B682F4AD36066
:10068800284B1B6803F5FC532D4A9360254B1B68C8
:1006980003F5FC532A4AD360224B1B68294A93600E
:1006A800204B1B68274AD3601E4B1B6803F59063D9
:1006B800254A93601B4B1B6803F59063224AD3605D
:1006C800184B1B68214A9360164B1B681F4AD3605E
:1006D800144B1B6803F580731D4A9360114B1B680C
:1006E80003F580731A4AD3600E4B1B68194A93604E
:1006F8000C4B1B68174AD3600A4B1B681433164A05
:100708009360084B1B681433134AD360012305E038
:1007180013223021786800F05BFE00231846083762
:10072800BD4680BDAC100024A40000248400002431
:10073800B4000024C400002494000024D400002441
:10074800E4000024F400002404010024140100241F
:1007580024010024340100244401002480B582B01F
:1007680000AF786039603A680121614800F05AFCAE
:100778000346002B00F0B2805E4B1B6843F08043B9
:100788005C4A13605A4B1B685A4A9360584B1B6863
:10079800584AD360584B1B6843F08043564A13604D
:1007A800534B1B6803F5E133534A9360504B1B6866
:1007B80003F5E133504AD360504B1B6843F0804344
:1007C8004E4A13604A4B1A684D4B13444B4A936088
:1007D800474B1A684A4B1344484AD360494B1B6835
:1007E80043F08043474A1360414B1A68464B134411
:1007F800444A93603E4B1A68434B1344414AD360C2
:10080800424B1B6843F08043404A1360384B1A68D8
:100818003F4B13443D4A9360354B1A683C4B134495
:100828003A4AD3603B4B1B6843F08043394A136014
:100838002F4B1A68384B1344364A93602C4B1A686E
:10084800354B1344334AD360344B1B6843F0804321
:10085800324A1360264B1A68314B13442F4A93606F
:10086800234B1A682E4B13442C4AD3602D4B1B681C
:1008780043F080432B4A13601D4B1A682A4B1344DC
:10088800284A93601A4B1A68274B1344254AD360A9
:10089800264B1B6843F08043244A1360144B1A68A4
:1008A800234B1344214A9360114B1A68204B13447D
:1008B8001E4AD3601F4B1B6843F080431D4A1360D8
:1008C8000B4B1A681C4B13441A4A9360084B1A685E
:1008D800194B1344174AD360012305E01222302133
:1008E800786800F075FD002318460837BD4680BDBE
:1008F800B010002404000024140000242400002464
:10090800C0C2010034000024C04605004400002491
:100918008047050054000024806706006400002416
:100928008068060074000024806D060054010024CD
:10093800946D060064010024F476060080B582B048
:1009480000AF7860786800F037FC0346184608372F
:10095800BD4680BD80B584B002AF786039600023A1
:100968000193052300930123044A3968786801F04C
:1009780049F8034618460837BD4680BD0C0C0024CC
:1009880080B596B000AFF860B9607A600021F86869
:10099800FFF7E0FF0346FB6497F84C30002B01D0CB
:1009A800FB6C5DE007F11403184600F0CDF8034630
:1009B80083F00103DBB2002B08D0FB681B681846E4
:1009C800FFF7BCFF0346FB64FB6C49E0BB68002BE8
:1009D80016D000237B650EE0796D7B6D9B00BA68AD
:1009E80013441A6807F114030C33184600F006FB89
:1009F8007B6D01337B657B8C1A467B6D9342EBDB09
:100A08007B68002B16D000233B650EE0396D3B6DEB
:100A18009B007A6813441A6807F1140304331846D4
:100A280000F0ECFA3B6D01333B657B8B1A463B6D5E
:100A38009342EBDBFB681B6807F11402114618466A
:100A480000F046F8034683F00103DBB2002B06D022
:100A5800FB681B681846FFF771FF0346FB64FB6CD5
:100A680018465837BD4680BD80B582B000AF786063
:100A780039607B68002B04D1064B7B607B68064A93
:100A88001A603968786800F0A9FC034618460837E8
:100A9800BD4680BD0C0C00240001C0A180B582B009
:100AA80000AF786039607B68002B04D1064B7B600F
:100AB8007B68064A1A603968786800F01BFE0346AE
:100AC80018460837BD4680BD0C0C00240001C0A1A3
:100AD80080B584B000AF786039603968786801F013
:100AE8006BF9F860FB68002B01D1002328E0012393
:100AF800FB723968F868FFF731FE03461A46FB7A3D
:100B08001340002B14BF01230023FB723968F868D7
:100B1800FFF760FD03461A46FB7A1340002B14BF0B
:100B280001230023FB72786801F0E2FA03461A46B3
:100B3800FB7A1340002B14BF01230023FB72FB7ABE
:100B480018461037BD4680BD80B586B000AF7860C6
:100B58007B68002B01D1002316E00D4A07F1100332
:100B680092E8030083E803000A4A07F1080392E8C1
:100B7800030083E8030007F1100207F10803194690
:100B8800786800F0FFFA034618461837BD4680BD5E
:100B980090330108983301080C4D0D4C03E02B6885
:100BA8002360043504340B4B9C42F8D10A4C02E014
:100BB800002323600434094B9C42F9D106F04AFB18
:100BC80012F098FB00F0D4F8FEE700BF5037010898
:100BD800000000248C10002490100024704500248C
:100BE800FEE780B483B000AF78607B6818460C37A6
:100BF800BD465DF8047B704780B483B000AF786071
:100C08007B6818460C37BD465DF8047B704780B496
:100C180083B000AF78607B6800221A607B68184652
:100C28000C37BD465DF8047B704780B483B000AFD5
:100C380078607B6800221A607B6818460C37BD46CE
:100C48005DF8047B704780B483B000AF78607B6840
:100C580000221A607B6818460C37BD465DF8047B95
:100C6800704780B483B000AF78607B6818460C3753
:100C7800BD465DF8047B704780B483B000AF7860F0
:100C88007B6818460C37BD465DF8047B704780B416
:100C980083B000AF78607B6818460C37BD465DF8B6
:100CA800047B704780B483B000AF78607B681846D7
:100CB8000C37BD465DF8047B704780B483B000AF45
:100CC80078607B6818460C37BD465DF8047B704732
:100CD80080B582B000AF78607B681846FFF797FF51
:100CE8007B6814331846FFF7AEFF7B681833184645
:100CF800FFF7C2FF7B6820331846FFF796FF7B6833
:100D080024331846FFF7CEFF7B6830331846FFF7C9
:100D180068FF7B6818460837BD4680BD80B582B03D
:100D280000AF78607B6830331846FFF765FF7B6853
:100D380024331846FFF7C1FF7B6818331846FFF7BE
:100D4800A6FF7B6814331846FFF78BFF7B681846AD
:100D58000837BD4680BD80B485B000AFF860B96083
:100D68007A6000BF1437BD465DF8047B7047000009
:100D780080B5ADF5094DA0B000AF654803F0B6FCED
:100D88000021634803F024FD624B1B8848F6741267
:100D98003A441380002348F676123A44137048F612
:100DA80068133B4400221A605A609A6048F6801320
:100DB8003B44A3F6083318464FF42F631A46002124
:100DC80012F0CAFA07F5F343A3F5C26300221A60CA
:100DD800002348F67C123A441360002348F6781240
:100DE8003A44136007F51863A3F67413184664238E
:100DF8001A46002112F0B0FA07F51863A3F6781224
:100E0800454B48F6801139440B441360434BD3F8E3
:100E1800E030424A43F40023C2F8E0303F4BD3F8B5
:100E2800E03003F4002207F51863A3F67C131A6078
:100E380007F51863A3F67C131B68394948F6801335
:100E48003B441944374B48F680123A441344002275
:100E58001846FFF795FD024607F51863A3F68403C5
:100E68001A6007F51863A3F684031B78002B0ED0CD
:100E78000121274803F040FC642006F033F80021E4
:100E8800234803F039FC642006F02CF8F0E707F556
:100E9800F343A3F5C2631B6800211846FFF7E4FD7E
:100EA80048F67C133B44186007F5F343A3F5C26387
:100EB8001B6800211846FFF7F1FD48F678133B44FC
:100EC800186048F67C133B441A68174B48F68011A3
:100ED80039440B44536048F678133B441B6847F683
:100EE80064623A445A601149094803F001FC01213F
:100EF800074803F001FC4FF4FA7005F0F3FF0021F6
:100F0800034803F0F9FB4FF4FA7005F0EBFFEEE746
:100F180080110024A03301088077FFFF00440258A5
:100F28008876FFFFF0E9FFFFF4E9FFFF5F0D000897
:100F380080B582B000AF786039607B68012B0CD136
:100F48003B684FF6FF72934207D10648FFF7C0FE91
:100F5800054A0649034812F013F900BF0837BD4691
:100F680080BD00BF8011002400000024250D00086A
:100F780080B500AF4FF6FF710120FFF7D9FF80BDA4
:100F880068B3174B174A10B404682340934223D11F
:100F980011B3846962681F3222F01F02037D416920
:100FA800A3F10103C1F31720B3FA83F35B09B3EB91
:100FB800112F0CDA012B03D102284FF0020306D0BF
:100FC80054F823100133984201FB02F2F2D122EACD
:100FD800E2705DF8044B704784696268DEE7704729
:100FE800FFFF7F01C000040038B1436823B1408887
:100FF800003818BF012070471846704750B1436841
:101008004BB1408800B97047C1EBC101012003EB27
:1010180081014A6070471846704700BF0120704739
:10102800704700BF002918BF0028F8B50CBF01247D
:101038000024002A08BF44F0010414B1002420460B
:10104800F8BD1646224B126805460F469A4222D032
:1010580070680028F2D006689E4206D0A1F101040B
:101068002860B4FA84F46409E9E7043D024621469D
:1010780000E0194652F8043FB34225D045F8043F32
:101088004B1C9F42F5D8DAD1023150F82130B342D7
:10109800D5D10124D3E7301DFFF7A6FF0028CDD016
:1010A800F3889F42CAD1043D2246B36823441C34C6
:1010B8005B6823B1013245F8043F9742F5D8BC1A62
:1010C800B4FA84F46409BAE78F42B8D1E1E700BF03
:1010D800DECAFAA1002918BF0028F8B50CBF012400
:1010E8000024002A08BF44F0010414B1002420465B
:1010F800F8BD1646224B126805460F469A4222D082
:10110800306A0028F2D006689E4206D0A1F1010498
:101118002860B4FA84F46409E9E7043D02462146EC
:1011280000E0194652F8043FB34226D045F8043F80
:101138004B1C9F42F5D8DAD1023150F82130B34226
:10114800D5D10124D3E706F10C00FFF74DFF0028A5
:10115800CCD0F3899F42C9D1043D22463369234448
:101168001C345B6823B1013245F8043F9742F5D837
:10117800BC1AB4FA84F46409B9E78F42B7D1E0E73E
:10118800DECAFAA1002A18BF002910D078B1034698
:10119800084803F10C0C43F8040B03C983E8030067
:1011A800012392E803008CE80300184670470023E7
:1011B80018467047DECAFAA110B500283FD07D4B0B
:1011C800044602689A423AD1FFF728FF7A4B6FF437
:1011D8008A621B68C3F30A039A18012A40F28680C0
:1011E80040F24942934200F08180744A1368C3F385
:1011F8000A03B3F58A6F00F08780136840F28341D1
:10120800C3F30A038B4200F0A9801368C3F30A03EF
:10121800B3F5906F00F0C0801368C3F30A03002B86
:1012280040F08280664A012393609368002BFCD1CA
:101238006449654B116012689A4275D0FEE7FFF762
:10124800EDFE5D4B6FF48A611B68C3F30A035A18FD
:10125800012A29D940F24942934225D0574A1368B6
:10126800C3F30A03B3F58A6F2BD0136840F28341A6
:10127800C3F30A038B4260D01368C3F30A03B3F5C0
:10128800906F7CD01368C3F30A03002B29D14C4A12
:10129800012393609368002BFCD14A494A4B1160A3
:1012A80012689A421DD0FEE7454A0123936093686D
:1012B800002BFCD14349444B116012689A4210D06C
:1012C800FEE7424A0123C2F8083CD2F8083C002B4A
:1012D800FBD13C493C4BC2F8001CD2F8002C9A4286
:1012E80011D1FFF79DFE41F2100010BD344A0123D1
:1012F80093609368002BFCD13249334B116012681C
:101308009A4211D0FEE7FEE7304A0123C2F8083CB2
:10131800D2F8083C002BFBD12A492B4BC2F8001C01
:10132800D2F8002C9A4207D1FFF77AFE04F1100098
:10133800BDE8104001F008B8FEE7244A0123C2F8CE
:10134800083CD2F8083C002BFBD11E491E4BC2F8C2
:10135800001CD2F8002C9A42C3D0FEE71B4A012396
:10136800C2F8083CD2F8083C002BFBD11549164BB3
:10137800C2F8001CD2F8002C9A42D5D0FEE7104AD9
:10138800012393609368002BFCD10E490E4B11602A
:1013980012689A42A5D0FEE7094A01239360936830
:1013A800002BFCD10749084B116012689A42BBD048
:1013B800FEE700BF0001C0A1002004E00010005CAF
:1013C80000300240C2A507F4CDB5E8B50040025888
:1013D80010B1103000F0BEBF704700BF2DE9F04FCC
:1013E80085B00291002800F09380AA4B81460268DC
:1013F8009A4240F08D80FFF711FEA74B6FF48A6286
:101408001B68C3F30A039A18012A40F2DA8040F2F3
:101418004942934200F0D580A04A1368C3F30A03F7
:10142800B3F58A6F00F0DC80136840F28341C3F3A0
:101438000A038B4200F00E811368C3F30A03B3F565
:10144800906F00F043811368C3F30A03002B00F088
:101458001381FFF7E5FDB9F82C30002B00F0D2809E
:10146800D9F830A0BAF1000F00F0CC800021CDF8F7
:101478000C900D46894616E0019A012348F802307F
:10148800B2694FF001035668013509F11C0923754B
:1014980000236269A7606BF31F222661A161E360E4
:1014A8006261C4E9000CBAF80030ACB2AB424FEA52
:1014B800C503019340F2B580DAF80430002B00F040
:1014C800B08053F82560002E00F0AB80DAF80830C1
:1014D800B269F16810680091D3E90148B36808EB74
:1014E800C5074C44C3F3172B03F066F8B26900999B
:1014F800D2F808C0002FC4D0002248F8352032683E
:101508007A6012B15288002AB6D1B2690027B8E7CA
:10151800FFF784FD604B6FF48A611B68C3F30A030D
:101528005A18012A2AD940F24942934226D05B4AE6
:101538001368C3F30A03B3F58A6F2CD0136840F21B
:101548008341C3F30A038B4273D01368C3F30A03BE
:10155800B3F5906F00F0AC801368C3F30A03002B57
:1015680029D14F4A012393609368002BFCD14D4940
:101578004D4B116012689A421DD0FEE7484A01237C
:1015880093609368002BFCD14649474B1160126861
:101598009A4210D0FEE7454A0123C2F8083CD2F827
:1015A800083C002BFBD13F493F4BC2F8001CD2F846
:1015B800002C9A4213D1FFF733FD002005B0BDE897
:1015C800F08F374A012393609368002BFCD1354B89
:1015D8001360354B12689A423FF43BAFFEE7FEE7D3
:1015E800324A0123C2F8083CD2F8083C002BFBD150
:1015F8002C4BC2F8003C2C4BD2F8002C9A423FF4FA
:1016080028AFFEE700241822112109F1100000F08C
:10161800A1FE2046029B002BD0D01C8005B0BDE85F
:10162800F08FDDF80C90002CECD0DAF80830586810
:10163800F0E71E4A0123C2F8083CD2F8083C002B08
:10164800FBD11849184BC2F8001CD2F8002C9A425A
:10165800B1D0FEE7154A0123C2F8083CD2F8083C8D
:10166800002BFBD10F4BC2F8003C0F4BD2F8002CDB
:101678009A423FF4EEAEFEE7094A0123936093686D
:10168800002BFCD1074B1360074B12689A423FF4BA
:10169800E0AEFEE70001C0A1002004E00010005CFD
:1016A80000300240C2A507F4CDB5E8B500400258A5
:1016B8000D4A012393609368002BFCD10B490C4B16
:1016C800116012689A423FF476AFFEE7064A01239A
:1016D80093609368002BFCD1044B1360044B126891
:1016E8009A423FF4B6AEFEE700300240C2A507F4C6
:1016F800CDB5E8B52DE9F04F85B00291002800F08E
:101708008F80A84B814602689A4240F08980FFF793
:1017180085FCA54B6FF48A621B68C3F30A039A1809
:10172800012A40F2D68040F24942934200F0D1802B
:101738009E4A1368C3F30A03B3F58A6F00F0D88092
:10174800136840F28341C3F30A038B4200F0098116
:101758001368C3F30A03B3F5906F00F03F81136871
:10176800C3F30A03002B00F00E81FFF759FCB9F808
:101778002C30012B40F2DB800021D9F830A0CDF8C5
:101788000C900D46894616E0019A012348F802306C
:10179800B2694FF001035668013509F11C09237538
:1017A80000236269A7606BF31F222661A161E360D1
:1017B8006261C4E9000CBAF80C30ACB2AB424FEA33
:1017C800C503019340F2A680DAF81030002B00F030
:1017D800A18053F82560002E00F09C80DAF81430C0
:1017E800B269F16810680091D3E90148B36808EB61
:1017F800C5074C44C3F3172B02F0DEFEB26900990B
:10180800D2F808C0002FC4D0002248F8352032682A
:101818007A6012B15288002AB6D1B2690027B8E7B7
:10182800FFF7FCFB604B6FF48A611B68C3F30A0384
:101838005A18012A2AD940F24942934226D05B4AD3
:101848001368C3F30A03B3F58A6F2CD0136840F208
:101858008341C3F30A038B4272D01368C3F30A03AC
:10186800B3F5906F00F0AC801368C3F30A03002B44
:1018780029D14F4A012393609368002BFCD14D492D
:101888004D4B116012689A421DD0FEE7484A012369
:1018980093609368002BFCD14649474B116012684E
:1018A8009A4210D0FEE7454A0123C2F8083CD2F814
:1018B800083C002BFBD13F493F4BC2F8001CD2F833
:1018C800002C9A4213D1FFF7ABFB002005B0BDE80E
:1018D800F08F374A012393609368002BFCD1354B76
:1018E8001360354B12689A423FF43FAFFEE7FEE7BC
:1018F800324A0123C2F8083CD2F8083C002BFBD13D
:101908002C4BC2F8003C2C4BD2F8002C9A423FF4E6
:101918002CAFFEE7DDF80C904CB1DAF814305868BB
:10192800029B002BD2D01C8005B0BDE8F08F0024AC
:101938001822112109F1100000F00CFD2046EFE7F4
:101948001E4A0123C2F8083CD2F8083C002BFBD100
:101958001849194BC2F8001CD2F8002C9A42B2D090
:10196800FEE7164A0123C2F8083CD2F8083C002BCF
:10197800FBD1104BC2F8003C0F4BD2F8002C9A4216
:101988003FF4F3AEFEE70A4A012393609368002B05
:10199800FCD1084B1360084B12689A423FF4E5AE3D
:1019A800FEE700BF0001C0A1002004E00010005CB9
:1019B80000300240C2A507F4CDB5E8B50040025892
:1019C8000D4A012393609368002BFCD10B490C4B03
:1019D800116012689A423FF476AFFEE7064A012387
:1019E80093609368002BFCD1044B1360044B12687E
:1019F8009A423FF4BAAEFEE700300240C2A507F4AF
:101A0800CDB5E8B52DE9F04383B0044615461E462A
:101A18009DF828709DF82C80FFF700FB002800F047
:101A2800BD80A54B6FF48A6C01461B68C3F30A039B
:101A380003EB0C02012A40F2A88040F2494293428B
:101A480000F0A3809D4A1368C3F30A03B3F58A6FB5
:101A580000F0B980136840F2834CC3F30A0363456E
:101A680000F0A1801368C3F30A03B3F5906F00F088
:101A780053811368C3F30A03002B40F08D80904A0A
:101A8800182393609368182B40F086800123936095
:101A98009368002BFCD10846FFF7C2FAFFF7BEFA9D
:101AA800854B6FF48A621B68C3F30A039A18012AEC
:101AB80040F29F8040F24942934200F09A807F4A68
:101AC8001368C3F30A03B3F58A6F00F0A0801368A4
:101AD80040F28341C3F30A038B4200F0BF801368CE
:101AE800C3F30A03B3F5906F00F023811368C3F3BF
:101AF8000A03002B00F0C480FFF792FA002C00F0D4
:101B0800AA80704B2B60256000F01CFC002800F0B8
:101B18009080FFF783FA684B6FF48A611B68C3F300
:101B28000A035A18012A40F2B98040F24942934206
:101B380000F0B480614A1368C3F30A03B3F58A6FEF
:101B480000F0C880136840F28341C3F30A038B4254
:101B580000F007811368C3F30A03B3F5906F00F030
:101B680011811368C3F30A03002B40F0C380544B60
:101B780001229A609A68002AFCD1534A1A601A68AE
:101B8800524B9A4200F0B680FEE74D4B18229A60FD
:101B98009A68182A27D00846FFF742FA44F2331009
:101BA80003B0BDE8F0834A4A1823C2F8083CD2F8CB
:101BB800083C182BF0D10123C2F8083CD2F8083CA5
:101BC800002BFBD167E7424A1823C2F8083CD2F839
:101BD800083C182BE0D10123C2F8083CD2F8083C95
:101BE800002BFBD157E701229A609A68002AFCD1A2
:101BF80051E7334A0123936091680029FCD1324BA5
:101C08001360324B12689A423FF476AFFEE7304ACF
:101C18000123C2F8083CD2F8083C002BFBD12A4B20
:101C2800C2F8003C294BD2F8002C9A423FF464AF2A
:101C3800FEE74FF03009002323601024424639465E
:101C4800304602F04DFD03460020AB6469F30700FF
:101C580064F31F20A4E741F21000A1E71C4A012306
:101C6800C2F8083CD2F8083C002BFBD1164BC2F84E
:101C7800003C164BD2F8002C9A423FF43DAFFEE7E9
:101C88000F4A012393609368002BFCD10E4B13601D
:101C98000E4B12689A423FF42FAFFEE7084A012321
:101CA80093609368002BFCD1074B1360074B1268B5
:101CB8009A421FD0FEE700BF002004E00010005C3D
:101CC800003002400001C0A1C2A507F4CDB5E8B5B7
:101CD80000400258334A0123C2F8083CD2F8083CB5
:101CE800002BFBD1304BC2F8003C304BD2F8002C13
:101CF8009A422CD1FFF794F900223946304602F077
:101D0800EFFC814600220521012002F0E9FC814513
:101D18001ED04FF001098EE7254B18229A609A6869
:101D2800182A7FF439AF01229A609A68002AFCD1F8
:101D3800B1E61F4A012393609368002BFCD11A4B2C
:101D480013601A4B12689A423FF4D6AEFEE7FEE7DC
:101D5800184B01A8019300F009FB00B30024A14629
:101D68006CE7104B0122C3F8082CD3F8082C002A82
:101D7800FBD10D4AC3F8002CD3F8002C0B4B9A4228
:101D8800B8D0FEE70A4B01229A609A68002AFCD173
:101D9800054A1A601A68054B9A42ABD0FEE74FF025
:101DA800020948E700400258C2A507F4CDB5E8B5D6
:101DB80000300240038404842DE9F843002852D0FF
:101DC800AB4B044602689A424DD10D46FFF726F9FF
:101DD800A84B6FF48A621B68C3F30A039A18012A96
:101DE80040F29B8040F24942934200F09680A24A1A
:101DF8001368C3F30A03B3F58A6F00F09D80136874
:101E080040F28341C3F30A038B4200F0E480136875
:101E1800C3F30A03B3F5906F00F01B811368C3F393
:101E28000A03002B00F0F980FFF7FAF8002D00F004
:101E38004781924B2A689A4240F090802B69AE897C
:101E4800B5F80EC0D5E90112A362C4E9071203234D
:101E5800A68426462046A4F826C0E36000F0AEFA21
:101E68003046BDE8F883FFF7D9F8824B6FF48A61F2
:101E78001B68C3F30A035A18012A2BD940F24942B6
:101E8800934227D07C4A1368C3F30A03B3F58A6FD9
:101E98002DD0136840F28341C3F30A038B4200F04C
:101EA80089801368C3F30A03B3F5906F00F0C38009
:101EB8001368C3F30A03002B29D1714A01239360E5
:101EC8009368002BFCD16F496F4B116012689A42DE
:101ED8001DD0FEE76A4A012393609368002BFCD16A
:101EE8006849694B116012689A4210D0FEE7674A48
:101EF8000123C2F8083CD2F8083C002BFBD1614909
:101F0800614BC2F8001CD2F8002C9A4213D100266B
:101F1800FFF786F83046BDE8F883594A01239360F5
:101F28009368002BFCD1574B1360574B12689A42A9
:101F38003FF47AAFFEE7FEE7544A0123C2F8083CB3
:101F4800D2F8083C002BFBD14E4BC2F8003C4E4B5C
:101F5800D2F8002C9A423FF467AFFEE701212846E9
:101F680005F11C086E68FFF70BF80746012140468B
:101F7800D5F82090FFF704F8002F3ED1002800F094
:101F88008E80B9F1000F00F094804FF0010CE38CC3
:101F98000026E7836345A6837AD3BCF1000F00F0DF
:101FA8009C80A56AB8E80F000FC598E8070085E887
:101FB80007004CE7354A0123C2F8083CD2F8083C30
:101FC800002BFBD12F49304BC2F8001CD2F8002C53
:101FD8009A429CD0FEE72D4A0123C2F8083CD2F869
:101FE800083C002BFBD1274BC2F8003C264BD2F80B
:101FF800002C9A423FF418AFFEE7002853D18046E0
:102008008446002E63D0E68B002E68D1122216215A
:1020180004F1100000F09EF97CE7194A012393604F
:102028009368002BFCD1174B1360174B12689A4228
:102038003FF4FAAEFEE7124A012393609368002B3F
:10204800FCD11049104B116012689A423FF45FAFFF
:10205800FEE70B4A012393609368002BFCD1094BE0
:102068001360094B12689A423FF4DEAEFEE700BFE8
:102078000001C0A1002004E00010005CDECAFAA143
:1020880000300240C2A507F4CDB5E8B500400258BB
:102098001322162104F1100000F05CF93AE7074614
:1020A8008046844673E7B9F1000F02D04FF0010C67
:1020B800A7E7102113220026601800F04BF929E742
:1020C800102111222E46601800F044F922E7102151
:1020D8001222601800F03EF91CE76646B7E60FCDFD
:1020E800266A01270FC695E8070086E807004EE72D
:1020F80038B500284ED08C4B044602689A4249D124
:10210800FEF78CFF894B6FF48A621B68C3F30A03DE
:102118009A18012A40F2958040F24942934200F011
:102128009080834A1368C3F30A03B3F58A6F00F0FB
:102138009680136840F28341C3F30A038B4200F090
:10214800B8801368C3F30A03B3F5906F00F0DE801C
:102158001368C3F30A03002B00F0BD80FEF760FF8D
:10216800E36813F0020500F08C80204600F034F993
:10217800E36B6BB1656B07E0D4E90F3298472B69C5
:1021880033B1AB421D4603D029460020002DF3D1C0
:10219800012038BDFEF742FF644B6FF48A611B686B
:1021A800C3F30A035A18012A2AD940F24942934232
:1021B80026D05F4A1368C3F30A03B3F58A6F2CD09D
:1021C800136840F28341C3F30A038B4260D013685B
:1021D800C3F30A03B3F5906F00F08B801368C3F361
:1021E8000A03002B29D1534A012393609368002BDB
:1021F800FCD15149514B116012689A421DD0FEE73B
:102208004C4A012393609368002BFCD14A494B4BFD
:10221800116012689A4210D0FEE7494A0123C2F8B9
:10222800083CD2F8083C002BFBD14349434BC2F889
:10223800001CD2F8002C9A4210D1FEF7F1FE0020C3
:1022480038BD3C4A012393609368002BFCD13A497E
:102258003A4B116012689A4280D0FEE7FEE7384A8E
:102268000123C2F8083CD2F8083C002BFBD13249C4
:10227800324BC2F8001CD2F8002C9A423FF46EAFE1
:10228800FEE710221121A01800F064F8284638BD96
:102298002B4A0123C2F8083CD2F8083C002BFBD19A
:1022A8002549264BC2F8001CD2F8002C9A42C4D00B
:1022B800FEE7234A0123C2F8083CD2F8083C002B69
:1022C800FBD11D491D4BC2F8001CD2F8002C9A42C4
:1022D8003FF444AFFEE7174A012393609368002B4D
:1022E800FCD11549154B116012689A423FF436AF7C
:1022F800FEE7104A012393609368002BFCD10E4936
:102308000E4B116012689A4297D0FEE7094A0123E2
:1023180093609368002BFCD10749084B1160126841
:102328009A423FF41BAFFEE70001C0A1002004E081
:102338000010005C00300240C2A507F4CDB5E8B536
:1023480000400258012070470346002200681A60C6
:10235800704700BF0346007808B100207047197025
:102368000120196862F31F211960704782B0124B6F
:10237800019318B10378032B02D0002002B07047F4
:102388009DF80420934204D0012080F0010002B09F
:102398007047427801309DF805309A42F4D110F820
:1023A800012F9DF806309A42EED142789DF8073009
:1023B8009A42E9D10020E8E7038404840021436BB2
:1023C8003BB11A690131D8609A42134601D0002AFC
:1023D800F6D10846704700BF38B50025446B6CB18C
:1023E8006368DB0704D5236A20460BB1013598479B
:1023F8002369A3421C4601D0002BF0D1284638BDE2
:102408002DE9F043089D042B00EB85050ED0082B21
:102418000AD1A84208D211F8013B02EB83031B68DA
:1024280040F8043B8542F6D8BDE8F083079B5E0878
:1024380003F001074FEAC60906F1FF38A842F3D2B4
:102448003EB300F1080E01F1FF3C01EB08041CF853
:10245800013F0EF1080E1B09644502EB83031B685C
:102468004EF8103C9CF8003003F00F0302EB830396
:102478001B684EF80C3CEAD131444844002FDDD0AB
:1024880011F8013B1B0902EB83031B6840F8043B6E
:10249800D4E7002FF4D1A842FDD3BDE8F08300BFF4
:1024A80082691388002B00F09280D2F804C0DCF80F
:1024B800042002B11268012B00F0B380DCF8101080
:1024C80001B10968022B00F084802DE9F04FDCF897
:1024D8001C60A1B0002E00F09D80BCF81850346834
:1024E800012D40F299807668D2F80C80D1F80C90D2
:1024F800D8F8047092691397D9F80470D0F83CE0C2
:102508001497D9F80C70D4F80CA01597D9F808705E
:10251800D2F808B01697D8F80C70A2691797D8F8AF
:1025280008701897078DD0E90C541997878DC069E2
:102538001A971F90BEF800001B90BEF804001C906C
:10254800A8B21D90A0B21E90D2F80890DAE90178DE
:102558000EB1B0698668A4B2896908F1FF30ADB2DE
:10256800013CD1F808A0013D116800FB0484781EE5
:1025780000FB0575C1F3434004282DD008282BD053
:102588001D9B4A460C9451461E9C584606970F942C
:10259800CDE90D531A9B0B93199B0A931B9B099327
:1025A8001C9BCDE90783159B0593169B0493179BEA
:1025B8000393189B0293149B0193139B00931F9BF7
:1025C8001093334601F026F821B0BDE8F08F5B6820
:1025D800FFDE00235B68FFDED268002AD0D0032B21
:1025E80022D0DCF82830CBB11B68BBB1D3F818C0B7
:1025F800C1F3C613C1F341510B41DCE901109BB291
:102608000191139900914946002818BF8146FFF7A8
:10261800F7FEB5E7344667E7002665E700239B69C0
:10262800FFDE00235B68FFDE00235B68FFDE00BF80
:102638002DE9F04F8369B1B01C88002C00F0EB80C5
:102648005D680246686800B10068012C00F0E78008
:10265800296901B10968022C00F0E180EB691E9339
:10266800002B00F0DF802E8B1B68012E2F9340F289
:10267800D980D3F80CC0032CC6688069B6F90CB0B1
:1026880090ED027AD2ED0A7ADCE9018ED2E90C9754
:102698000FFA88FA1FFA89FC1FFA87F9CDF89CC04F
:1026A8000CF1FF3C09F1FF37CDF8A0900AF1FF3992
:1026B8000FFA8EF01CFB098C1D901D980FFA8CFCEC
:1026C800B6F90890B6F90460634600F1FF3C1F961E
:1026D80017FB0CE7A9EB030E184617EE903A0FFA12
:1026E80087F8D76B7E681FFA86FC1EFA86FE3E685E
:1026F800CDF898C0B7F80CC0E644B7F808C0ABEB03
:10270800080717FA86F767441FFA86FC9EB2CDF8C9
:1027180094C09BB2D2F82CC023939EFBF6F606F128
:1027280001060FFA86FECE688969CDF8B8E01FFA6F
:102738008CFE97FBFEF7CDF890E007F1010CB6F997
:1027480004E0CDF880E0B6F90CE0936DCDF884E0B4
:10275800B6F908E0D76DCDF888E0B2F944E0B2F9EF
:102768001C60CDF8A4E0B2F94CE08968CDF8A8E087
:10277800B2F950E0CDF8ACE0B3F900E0936DCDF8D4
:10278800B0E0B3F904E01E9BCDF8B4E05B68B2F9A1
:1027980048E02F9A9B6992699B6892683FD0AC6A1F
:1027A800002C3AD02C9D1A952D9D19952B9D189586
:1027B8002A9DCDE916E5299DCDE914752E9F279D03
:1027C800CDE91167289F0F951097239D249F0B959E
:1027D8000C97269D259F09950A97CDE90D801D9890
:1027E800CDE907A0219D20980695229D1F9E029065
:1027F80017EE100ACDF80C900196CDE904B50FFA42
:102808008CF513952468A469A468009401F062F813
:1028180031B0BDE8F08F6368FFDEA369FFDE0023F7
:102828005B68FFDE00239B69FFDE00BF83691A88AF
:10283800002A00F0F0802DE9F04F2DED028B58684A
:102848009BB0456805B12D68012A00F00A84066925
:1028580006B13668022A00F0E080C3690D93002BA8
:1028680000F0F1831946038B0968012B0F9140F2A0
:10287800EC830D9B5B680D930B46D3F81880032AF5
:10288800EB68F7685B687C681793D8F800302146D6
:102898001994C3F3C61EC3F3415CD7E9024701FB91
:1028A80004F44EFA0CF1169100F0D883826AC3F34F
:1028B8004343002A00F0C2831268002A00F0BE8356
:1028C800042BD2F8189000F0A883082B00F0A583F9
:1028D8004FF0000AAB6907FB04F4B269D3F808901B
:1028E8000F9B92685B6902EB840106925B688A42DF
:1028F80010910493199B4FEA830002EB83030E9017
:10290800039380F08083179A5446B94BCA46D0087F
:102918009FEDB88A13440990990022F0010302F050
:10292800010209EB830318910A9209EB40120593FF
:1029380001F12003079211934B449B460B930F9B85
:102948009B699A680D9B0BB19B699B68002C00F0F2
:102958004B831699042900F06A82039906988142EC
:1029680040F256838646189800EB0A0941090AF195
:102978000400CDF820901290481CC9001031159120
:10298800C10013910AEB40111491A9F10401DDF87B
:102998005C900C91002B00F02881B3EC015AB9F13E
:1029A800070F3DD8DA4511D2DFED927A5046154629
:1029B80015F8011BB0EC017A04EB81015845D1ED03
:1029C800006AE6EE877AF3D335EE275A0499AEEC1F
:1029D800015A0A4403998E45DCD3069A8B1A013BA7
:1029E80023F003030433D31819460693039B0E9A66
:1029F80010981344079A81420393119B1A449B44ED
:102A08000792059A1A4405920B9A924680F0FB8227
:102A18001A440B9293E75368FFDE00235B68FFDEDE
:102A280002F00301022900F0E681032900F0E480A6
:102A3800012900F0EF8108999FED6E7A8A4500F22E
:102A4800E982159D02F108010AF12000AE1811F87B
:102A5800075C083150ED072A203004EB850510ED9E
:102A6800103A50ED0E3AD5ED007A11F8105C67EE89
:102A7800A27A10ED0D4A04EB850550ED0C4A50ED95
:102A88000B5AD5ED002A11F80E5CE2EE837A10EDB0
:102A98000A6A04EB850550ED096A95ED003A11F8CC
:102AA8000D5CE3EE237A04EB8505D5ED003A11F8C9
:102AB8000C5C04EB8505E3EE847A95ED004A11F889
:102AC8000B5C04EB8505E4EE247AD5ED004A11F899
:102AD8000A5C04EB8505E4EEA57AD5ED005A11F8F9
:102AE800095C8E4204EB8505E5EE867A95ED006A71
:102AF800E6EE267A37EE277AA9D113995018149959
:102B080059456FD2057804EB8505D5ED007A0D4659
:102B1800F5EC016AAB45A6EEA77A63D94578D1ED05
:102B2800016A04EB8505D5ED007A01F10805AB458E
:102B3800A6EEA77A56D98578D1ED026A04EB850509
:102B4800D5ED007A01F10C05AB45A6EEA77A49D977
:102B5800C578D1ED036A04EB8505D5ED007A01F15E
:102B68001005AB45A6EEA77A3CD90579D1ED046AE4
:102B780004EB8505D5ED007A01F11405AB45A6EE09
:102B8800A77A2FD94579D1ED056A04EB8505D5EDEE
:102B9800007A01F11805AB45A6EEA77A22D9857906
:102BA800D1ED066A04EB8505D5ED007A01F11C0527
:102BB800AB45A6EEA77A15D9C579D1ED076A04EB1E
:102BC8008505D5ED007A01F12005AB45A6EEA77A7B
:102BD80008D9D1ED087A017A04EB8101D1ED006AB8
:102BE800A6EEA77A35EE075AF0E69FED025AD6E62A
:102BF800F8FFFF3F00000000B0EE487A504611464B
:102C08008C4606461CF8015BF6EC017A04EB850558
:102C1800D5ED006A089DA6EEA77AAE4266D80C9D4F
:102C280001F111070931A5EB000824304FEA5818C3
:102C380007EBC80711F8075C083150ED072A203068
:102C480004EB850510ED103A50ED0E3AD5ED007AFB
:102C580011F8105C67EEA27A10ED0D4A04EB8505B9
:102C680050ED0C4A50ED0B5AD5ED002A11F80E5CC8
:102C7800E2EE837A10ED0A6A04EB850550ED096AE5
:102C880095ED003A11F80D5CE3EE237A04EB850527
:102C9800D5ED003A11F80C5C04EB8505E3EE847A77
:102CA80095ED004A11F80B5C04EB8505E4EE247AF7
:102CB800D5ED004A11F80A5C04EB8505E4EEA57A27
:102CC800D5ED005A11F8095C8F4204EB8505E5EE55
:102CD800867A95ED006AE6EE267A37EE277AA9D14C
:102CE80008F101080CEBC80C06EB48165E45BFF46A
:102CF80079AF9CF8001004EB8101D1ED007A3146E0
:102D0800F1EC016A8B45A6EEA77A7FF66BAF9CF8CB
:102D18000110D6ED016A04EB8101D1ED007A06F1CC
:102D280008018B45A6EEA77A7FF65CAF9CF80210E7
:102D3800D6ED026A04EB8101D1ED007A06F10C01AF
:102D48008B45A6EEA77A7FF64DAF9CF80310D6ED1B
:102D5800036A04EB8101D1ED007A06F110018B457D
:102D6800A6EEA77A7FF63EAF9CF80410D6ED046A6B
:102D780004EB8101D1ED007A06F114018B45A6EE32
:102D8800A77A7FF62FAF9CF80510D6ED056A04EBFD
:102D98008101D1ED007A06F118018B45A6EEA77ADC
:102DA8007FF620AF9CF80610D6ED066A04EB810189
:102DB800D1ED007A06F11C018B45A6EEA77A7FF6C5
:102DC80011AF9CF80710D6ED076A04EB8101D1ED2D
:102DD800007A06F120018B45A6EEA77A7FF602AFAE
:102DE8009CF80810D6ED087A04EB8101D1ED006A51
:102DF800A6EEA77AF6E6B0EE487A5046114611F8E4
:102E0800015BF0EC017A04EB8505D5ED006AA6EECE
:102E1800A77AF5E61146DAED007A129811F8015B07
:102E280004EB850595ED007A27EE277AE7E7039806
:102E3800069988427FF6DAAD0998CDF830B08B460E
:102E480000F1010C059802EB8C0C01380890002B5E
:102E580000F0BF800999F3EC012A1FED9A7A002946
:102E680000F0BF80101D0AF1200110F8047C043026
:102E780011ED072A203107F00F0E3F0910F8076CF3
:102E880004EB8E0E11ED104A04EB870751ED0E3A54
:102E9800DEED007A97ED003A370967EE827A06F0A0
:102EA8000F0604EB870710F8065C04EB860611EDA5
:102EB8000D5AE3EE047A97ED003A96ED004A2E0992
:102EC80051ED0C4A05F00F0504EB860611ED0B6A6F
:102ED80004EB850551ED0A5A51ED096AE3EE237AB0
:102EE800E4EE057A96ED004A95ED005A10F8055C77
:102EF80060454FEA151605F00F05E4EE247A04EB59
:102F0800860604EB8505E5EE067A96ED005A95ED02
:102F1800006AE5EE257AE6EE267A37EE277AA4D11E
:102F2800ACF10408DDF81CE005998E4529D2089912
:102F38000EF1080008F1FF36A1EB0E074FEAD7099A
:102F480008EBD70716F8011F083050ED035A01F0B7
:102F58000F05090950ED046AB74204EB850504EB37
:102F68008101D5ED007A91ED006A67EEA57AE6EE6B
:102F7800267A37EE277AE5D109F10109C8440EEB24
:102F8800C90E0A99C1B198F80010DEED007A090956
:102F9800049804EB810102448444D1ED006A03994A
:102FA800A6EEA77A72EE872AEBEC012A59453FF67E
:102FB8004EAFDDF830B010E5049932EE877A0A4456
:102FC8008C440399ABEC017A8B45F2D2002B7FF449
:102FD80041AF0999F0EE482A9FED237A00297FF442
:102FE80041AFD64690469FE719985146069D0190F5
:102FF80017980090284601F02FF92B460E9A134493
:1030080019460693F2E41BB0BDEC028BBDE8F08FC5
:103018000146EBE45146104672E5D8F80C80B9F148
:10302800000F16D0D9E9000101F032FBD9F80CA045
:1030380002464046514601F037FA4BE4042B0AD0C9
:103048004FF0000941E40F9317E400230D930B465A
:1030580013E4C2463EE4D8F80CA03BE400235B68C6
:10306800FFDE00235B68FFDE000000008269138832
:10307800002B5BD051684A6802B11268012B00F03E
:10308800238170B40B6903B11B68C669002E00F078
:103098009E8071689869012900F0C38093689169DE
:1030A8001B0A80688D6800F0F280D468012204EB66
:1030B800830353F8041DA34201FB02F2F9D1B3685C
:1030C80093ED027AD3ED006AB5EEC07A93ED016A0A
:1030D800F1EE10FA2CD46FF04043134405EB830251
:1030E80000EB830095421FD80432011D0DE0F4EE79
:1030F800E76AF1EE10FA03DB77EEE67A67EE867A96
:10310800083B61ED017A9D420ED8134672ED017AB3
:10311800F4EEC77AF1EE10FAE9D9083BF0EE477AF7
:103128009D4261ED017AF0D970BC70475B68FFDEA3
:10313800B5EE406A6FF040411144F1EE10FA05EB2C
:10314800810300EB81001FD19D42EDD85D1B1A1D44
:10315800011D002025F003055B1B72ED017AF4EEDA
:10316800E67AF1EE10FA0ADC9A4241F8040DDBD057
:1031780072ED017AF4EEE67AF1EE10FAF4DD9A4295
:1031880061ED017AE9D1CFE79D42CDD85D1B1A1DCB
:10319800011D25F003055B1B72ED017AF4EEE76A69
:1031A800F1EE10FA0EDB77EEE67A934267EE867A56
:1031B80061ED017AB8D072ED017AF4EEE76AF1EECA
:1031C80010FAF0DA934261ED017AE5D1ACE799693A
:1031D800936890691B0A896884686ED0D568012253
:1031E80005EB830353F8040D9D4200FB02F2F9D16D
:1031F8006FF04043134404EB830201EB83019442D4
:1032080092D8043204319FED327A134672ED017A76
:10321800083BC7FE877A61ED017A9C42F5D970BCFC
:103228007047936980689C6893681B0A47D0D56883
:1032380005EB830353F8042DAB4202FB01F1F9D1EE
:103248006FF04042B3680A4493ED007A04EB8203BE
:1032580000EB82009C423FF667AF021D043300205A
:1032680053ED017A191F083BB4EEE77AF1EE10FA34
:1032780006D49C4242F8040D3FF656AF0B46EFE7E2
:103288009C4262ED017A3FF64FAF0B46E8E7B36820
:1032980093ED027AD3ED006AB5EEC07A93ED016A38
:1032A800F1EE10FA01D42A461EE7B5EE406A2B4625
:1032B800F1EE10FA7FF46AAF48E72246A1E7B26858
:1032C800234692ED007AC8E700235B68FFDE00BF63
:1032D8000000000082691388002B78D02DE9F04F98
:1032E8002DED048B526885B0546804B12468012B15
:1032F80072D01369002B72D01E68A368E068F26868
:103308001B0A4568576864D000EB8303012253F811
:10331800041D984201FB02F2F9D14FEA8209A26921
:10332800B3699268D3F8088002EB09039A420193C3
:1033380048D2BB00012D02EB8507B7EE009A039334
:103348004FEA85033E4692ED008A029337D9131D52
:10335800F3EC017A9E4288FE278AF9D19246C34649
:10336800C146DFED208A0024BAEC010A013430EEB0
:10337800480A0FF039FFA54278EE808AA9EC010AC5
:10338800F2D8F5EE408AF1EE10FA0BD089EE287AE1
:103398000023DBED007A01339D4267EE277AEBECE0
:1033A800017AF6D8039B3A4601999844029BB942A0
:1033B8001E4407D9012D1F4492ED008AC7D8002D5D
:1033C800F0D0CBE705B0BDEC048BBDE8F08F5B68AF
:1033D800FFDE4FF00409A2E700235B68FFDEDB682D
:1033E800FFDE00BF000000002DE9F04F2DED0C8B33
:1033F8008DB01D4603900792249C0893DDF89CB07D
:10340800229B0B91DDE9250200FB02F00490BDF838
:10341800A4000990002C00F0ED809C0000FB05F34F
:103428009B0005940693289B03FB05F301EB83039C
:103438000193289B5B42009300230293AB000A93FD
:10344800289B002BC0F2DD80019E0020049D079B75
:103458000A9A009905FB0235239B0B4425998B4258
:1034680094BFC0EB0300C0EB0100239BBBF1000F2E
:10347800A3EB000A089BA1EB000903FB00F040F353
:10348800C68020F00F04B0EE407A02FB0AFA4FF033
:10349800000C04F1FF3802FB09F94FEA181808F18B
:1034A80001084FEA881E4FEA0818002C40F3A7804D
:1034B80006F1400205F14003002153ED0F6A103177
:1034C80052ED0F7A403352ED104AA14267EEA67AC8
:1034D80013ED205A52ED0E5A02F1400213ED1E6A06
:1034E800E4EE857A53ED1D6A52ED1DDA12ED1CDA11
:1034F80053ED1CCA12ED1BCA53ED1BBAE5EE867AD2
:1035080012ED1ABA53ED1AAA12ED19AA53ED199A27
:1035180012ED189A53ED188AEDEEA67A12ED178A75
:1035280053ED170A12ED161A53ED161A12ED152A55
:1035380053ED152AEDEE2C7A12ED143A53ED143AA8
:1035480012ED134A53ED134A12ED125A53ED125A63
:10355800ECEE2B7A12ED116A53ED116AEBEE2A7A32
:10356800EAEE297AE9EE287AE8EE207AE1EE217A85
:10357800E2EE227AE3EE237AE4EE247AE5EE257A87
:10358800E6EE267A37EE277A97DB76447544474687
:10359800B84210DD3B4631462A460133F2EC016A57
:1035A800F1EC017A9842A6EEA77AF6D1C71B05EB93
:1035B800870506EB87060CF1010C56444D44DC45A3
:1035C8007FF473AF28990998039A0144029B82ED0E
:1035D800007A28910133059902930A4406990392C7
:1035E800009A121A0092019A0A440192249A93426C
:1035F8007FF426AF0DB0BDEC0C8BBDE8F08F002733
:10360800C6E7009A049B10460B9E9D181FE7B0EE74
:10361800407AD7E72DE9F04F2DED028B9FB0864613
:10362800944608AFB7F8B040F962B7F8AC10B7F8ED
:10363800B4504E42FC64D7F89C4078603A61FB6312
:10364800D7F8A420B7F8A8007D613E63D7E9223AED
:10365800002C00F09280D7F8A040796304FB02F2B6
:10366800D7F8901044429FED9A8A3C6503FB02F418
:1036780003FB01F2D7F898104FEA840BBC6301FBF7
:103688000AF18900B96105FB02F1554606FB02F211
:10369800DA468900F9610EEB82010BF10702B96283
:1036A80022F007010CEB8402F9600CF17841BA6052
:1036B800002239627A623A6B002AC0F2D580002271
:1036C800D7F828B07A65796BD7F89420D7F8B8007E
:1036D8000A44796D824294BFC1EB0201C1EB00013B
:1036E8003A6AB2F1807F39644DD285B3FA6B002A09
:1036F80000F0BF8059469146D346D7F82C803E69E2
:103708000024D7F840A0FA6C0134B9EC010A40460D
:10371800079208F104083A6DCDE905A27A6D049282
:10372800D7F8A0200392D7F898200292D7F89020D3
:10373800CDE900523246C7F88830B9645E44FFF7D5
:1037480053FEA542B96CD7F88830DCD1DA46F96A5D
:10375800B8697A6A014478690132F962396B7A6228
:1037680001443963796B091AF8697963B96A0144C4
:10377800B962D7F89C1091429DD15C37BD46BDEC2B
:10378800028BBDE8F08F6A4608EE902AFA68ADEB26
:10379800020D08AA002D3DD038695946BC68AB46D1
:1037A800D7F82C904FF00008FE6B0546B86B38B17F
:1037B8002846944650F804EBA0424CF804EBF9D1A3
:1037C800F86B08F1010848B3F86C5544B6EC010AE7
:1037D80054440790386D0690386C0590786D0490C5
:1037E800D7F8A0000390D7F898000290D7F8900077
:1037F800CDE900B04846C7F8883009F10409C7E99F
:103808001121FFF7F1FDD845D7F88830D7E9112104
:10381800CCD15D4618EE902A954698E7F86CB0EE44
:10382800480A554454440790386D0690386C059002
:10383800786D0490D7F8A0000390D7F8980002900C
:10384800D7F89000CDE900B04846C7F8883009F1AC
:103858000409C7E91121FFF7C7FDC345D7F8883028
:10386800D7E91121A2D1D4E77A6BD7F804B07A65E9
:1038780029E75946D7F82C80D3463E691446D7F82D
:103888005490D7F840A0FA6C01344046B0EE480A8C
:10389800079208F104083A6DCDF81090CDE905A219
:1038A800D7F8A0200392D7F898200292D7F8902052
:1038B800CDE900523246C7F8883079655E44FFF793
:1038C80093FDA542796DD7F88830DCD13EE700BF7B
:1038D800000000002DE9F04F2DED048BBBB09C4695
:1038E800964681460AAFB7F90841B7F824B1B7F947
:1038F80040A1F965C7F88830B7F95011B7F9143104
:10390800B7F90051B7F90461BA6279670AFB01F2A5
:10391800B7F91011BC63C7F8A830B7F90C4105FB1B
:1039280002F2B7F92C31C7F8A4B0B7F828B1F8609B
:10393800B966B7F82001C7F8AC603C654642C7F8DD
:1039480060B0B7F9FC80B7F91811B7F81C41C7F88F
:10395800B4507B63B7F94431B7F94CB1C7F89860F4
:10396800C7F848B0B7F954B1BE6EC7F844B0B7F954
:1039780058B1002EC7F86CB0B7F95CB1C7F840B0C1
:10398800B7F960B1C7F8B8B040F3CE80D7F8A860EF
:10399800013B6442C7F89C0006FB01F19BB2D7F8D3
:1039A800AC6008FB01FB9FEDAE8AC7F8A0402C462F
:1039B8005946C7F8BC30ABB2FD6E8900C7F870B085
:1039C800184608EE903AC7F88010396E05FB04F3E4
:1039D80001FB06F10AFB03F308FB01F19D00431EFE
:1039E800880008FB06F1D7F8F8609BB27865D7F82D
:1039F800980001333D625D4600FB01F106EB820B46
:103A080009EB8100396DB146D7F8B860C7F8940062
:103A1800900004FB01F2D7F88010B8604042920091
:103A2800BE65F864FA6300227A66CA1D22F00701AF
:103A3800002279610AFB04F1A400FA6779627146F1
:103A48000EF1784EFC6201EB85015546C246C7F877
:103A580030E0396199000CEB8303F9617B600BF16D
:103A6800FF333B60D7F8BC3001331BB2002B00F3A7
:103A78008380D7F8BC301B0400F1F4807A6FD7F844
:103A8800B8108A4256DCF86D92B2FB6F08903E6E11
:103A98000133D7F898403444C7F89840FC6B204469
:103AA8001CB2D7F89C30F8659B1B786DFC67C7F88B
:103AB8009C30D7F894300344C7F8943001927B6E59
:103AC800D21AB7F86C30C91A0593D7F8588092B251
:103AD8000BB2A9B2C7F8B8301FFA88F303930123D1
:103AE8000793B7F850300693B7F844300493B7F803
:103AF80040300293B7F84830009318EE903AD7F860
:103B0800F800D7F84861B047FA6E43469B1AD7F8D1
:103B1800BC2023EAE373013A1BB292B2BB65BB6EC9
:103B2800C7F8BC20A3429DDCC437BD46BDEC048B5E
:103B3800BDE8F08F396ED7F89820D7F8BC300A4422
:103B4800013BC7F89820D7F89C209BB2521A796D90
:103B5800C7F8BC30C7F89C20D7F89420BB6E0A443D
:103B6800C7F89420FA6F9342DEDDD7F8BC300133F2
:103B78001BB2002B7FF77DAFD7F89830002BC0F22F
:103B880022810023D7F89410C7F8B030D7F89C20CA
:103B9800BB6B786B1344D7F8B0208342D4BFC2EB19
:103BA8000302C2EB00023B6BB3F1807FC7F88420AD
:103BB80080F09580D7F8B430002B3CDDD7F88830FA
:103BC800002B00F006811E46C8465346C7F878B059
:103BD800AA46C7F81890BC6AD7F804B0D7F88090FE
:103BE800D7F88450D7F8A4204046B6EC010A08F16B
:103BF80004080792D7F8A020CDE90552D7F8B020DD
:103C08000492D7F8A820CDE902A2D7F8AC200192F7
:103C1800D7F8B420009222464C44C7E92331FFF775
:103C2800E3FB5E45D7E92331DCD15546D7F878B0B8
:103C3800D7F818909A46002D0ADD0023F96AF86C27
:103C480089440133D9451AB228BF81449542F7DC2B
:103C5800D7F8B83001331BB2C7F8B8300EE700BF49
:103C680000000000D7F8B8307A6A02FB03F2D7F8F0
:103C7800F830A9EB8202934201D9BB681A44D7F8FD
:103C8800F830934214D27B6FD7F8B8108B420FD01C
:103C98005A450DD24946134653F8040B5B4541F883
:103CA800040BF9D33B689B1A23F0030304339944AC
:103CB8007A6E796FB7F8B8300A44396A8944F96E70
:103CC800D21A0B44D94512B21BB27A66C7F8B8307B
:103CD800FFF4D4AEFB6C9944D945FCD2CEE66B46D2
:103CE80009EE103A7B69ADEB030DD7F8B430002B21
:103CF8000AAA44DDFB69C846C7F818904B443C69DA
:103D0800A946D7F88860BB67BB6A1D463B6F3BB1C5
:103D18002846944650F8043B84424CF8043BF9D1B9
:103D2800D7F888307BB3D7F880304046B6EC010A24
:103D380008F104081D441C44D7F8A4300793D7F8A9
:103D4800A0300693D7F884300593D7F8B0300493A1
:103D5800D7F8A830CDE90293D7F8AC300193D7F85B
:103D6800B43000935346C7E92321FFF73DFBBB6FEF
:103D78004345D7E92321C9D14D46D7F8189019EE04
:103D8800103A9D4657E7D7F8A4304046B0EE480AA7
:103D980008F104080793D7F8A0300693D7F88430C1
:103DA8000593D7F8B0300493D7F8A830CDE902933B
:103DB800D7F8AC300193D7F8B4300093D7F88030F7
:103DC8001D441C44CEE7D7F89C30F968C7F8B030DA
:103DD800DCE6FB694C46C7F88CB009EB0308C7F86A
:103DE80078905346BE6AAA46D7F880B09146D7F86D
:103DF800B050D7F8A42020460434B0EE480A079201
:103E0800D7F8A0200495CDE90592D7F8A820CDE9E8
:103E180002A2D7F8AC200192D7F8B420009232461B
:103E2800C7F890305E44C7F8B010FFF7DDFAA04538
:103E3800D7F8B010D7F89030DBD15546D7F88CB00A
:103E4800D7F878909A46F6E62DE9F04F93B08A466F
:103E58001F469346BDF874108146BDF87030019135
:103E6800BDF88010BDF87C200591BDF8841004933E
:103E78000691BDF87830BDF8881052EA030C02911B
:103E8800BDF88C10039173D10499029DA1EB0A002F
:103E9800059E691E013811FB0601080468D50199C1
:103EA800039EA1EB0B00069C711E013811FB040157
:103EB80009045DD5002E58D0002D56D0002F54D0BF
:103EC800012F40F05B81E3466346CDF81CC0029A9F
:103ED8000027BDF9046002FB03F3DDF81080BE463D
:103EE800BC4608930FFA8BF30993099C3DB2089BD3
:103EF8000FFA88F0B442DFEDA07A9C4412DA8542CA
:103F08000CDA04FB0A522B4609EB82020133B2ECAD
:103F1800017A19B2C7FE877A8142F7DB013424B2ED
:103F2800B442ECDB249B0EF1010E03EB8C0C059BD9
:103F38000FFA8EFE98441F44029BCCED007A1FFABC
:103F480088F87345BFB2F446CFDC079A0699019BFF
:103F580001328B4412B20B4403991FFA8BFB9BB2BC
:103F68000792914201931346B1DC13B0BDE8F08F7C
:103F780003990029F9D002990029F6D0002FF4D02E
:103F8800012F01996AD18A1A0499C91A5B4292B21F
:103F98009BB207928AB20C9300230B920893029A61
:103FA8004FF0000C02FB03F3079AE646099317B299
:103FB800019BD31A1BB20A93DDE90B8304930A9879
:103FC8000FFA88F4099B8742BDF910609E44DFED23
:103FD8006A7A1EDDA64218DAC143834500FB0AF25D
:103FE8004FEAD17111DD3244334609EB82021D04D8
:103FF80006D429B19A4503DD92ED007AC7FE877A87
:10400800013304321DB2A542F1DB013000B2B842DF
:10401800E0DB249B0CF1010C059A03EB8E0E049B4C
:104028000FFA8CFC90441344CEED007A1FFA88F8FE
:10403800E6469BB20493029B6345C0DC089ADDE91F
:10404800061301320B44039912B29BB291420892B3
:1040580007931346A3DC13B0BDE8F08F881A0499C0
:104068005242CDF83890C91A5B4292B2B9469BB217
:1040780080B2089211938AB200234FEA870807900A
:1040880010920C93029ABDF91C7002FB03F3BDF960
:1040980020200B92109A0F9300230192119A0D93EE
:1040A80004920F9A4FF0000EBDF910601344BDF949
:1040B8000440F44609FB03F30A930B98DFED2E7ACC
:1040C800B84226DACDF824E0DDF838E0A6421ADA5C
:1040D800C543584500FB0AF34FEAD57513DA9A1918
:1040E800334609FB02C20EEB8202190406D42DB135
:1040F8009A4503DD92ED007AC7FE877A0133424480
:1041080019B2A142F1DB013000B2B842DEDBDDF8C2
:1041180024E00A9B0EF1010E249A63440FFA8EFEE6
:1041280002EB8303CE45F446C3ED007AC5DB019A62
:1041380005980D990244049B013192B2034409B2D7
:1041480001929BB2029A04930B468A420D91A8DC15
:104158000C99089B0131DDE9060209B202440344C7
:104168000C9192B29BB20792039A08930B468A422B
:1041780088DC13B0BDE8F08F000000CF63464FEA3B
:10418800870BCDF820C0CDF824C0029A4FF0000864
:10419800BDF904C002FB03F3CDF828800C93BDF9E8
:1041A80020300D93049B079343460C9A4FF0000E62
:1041B8000FFA88F5BDF91C001344764607FB03F394
:1041C8000B930D9C5FED147A644515DA85420FDA7E
:1041D8000AFB04532A4607FB036309EB83030132F6
:1041E80093ED007A5B4411B2C7FE877A8142F6DB11
:1041F800013424B26445E9DB0B9B0EF1010E249ACD
:1042080033440FFA8EFE02EB8303BE457646C3EDB8
:10421800007AD6DB0A9A0599079B0132884412B2C4
:104228000B4402991FFA88F89BB20A9291420793AD
:104238001346BADC019A069809990244089B013191
:1042480092B2034409B201929BB2039A08930B46B7
:104258008A42099199DC88E62DE9F04F2DED0C8B07
:10426800DDE9156400EB8407874240F20581A6F179
:1042780010084FEA8609054606F00F0B4FEA181892
:1042880008F101084FEA881A01EB88180F2E9FEDF4
:10429800857A40F2028101F1400C02F14004B646F1
:1042A80054ED0F6AAEF1100E5CED0F7A40345CED00
:1042B800104ABEF10F0F67EEA67A14ED205A5CED96
:1042C8000E5A0CF1400C14ED1E6AE4EE857A54ED9A
:1042D8001D6A1CED1DDA5CED1CCA14ED1CCA5CEDF0
:1042E8001BBA14ED1BBAE5EE867A5CED1AAA14ED3A
:1042F8001AAA5CED199A14ED199A5CED188A14ED56
:10430800188AEDEE267A1CED170A54ED170A1CEDF3
:10431800161A54ED161A1CED152A54ED152AECEE52
:104328008C7A1CED143A54ED143A1CED134A54EDF2
:10433800134A1CED125A54ED125AEBEE8B7A1CED0F
:10434800116A54ED116AEAEE8A7AE9EE897AE8EEA2
:10435800887AE0EE207AE1EE217AE2EE227AE3EE44
:10436800237AE4EE247AE5EE257AE6EE267A37EE2D
:10437800277A95D802EB0A0E5C46C446002C75D005
:10438800DCED006A012CDEED007AA6EEA77A6DD08E
:10439800DCED016A022CDEED017AA6EEA77A65D083
:1043A800DCED026A032CDEED027AA6EEA77A5DD078
:1043B800DCED036A042CDEED037AA6EEA77A55D06D
:1043C800DCED046A052CDEED047AA6EEA77A4DD062
:1043D800DCED056A062CDEED057AA6EEA77A45D057
:1043E800DCED066A072CDEED067AA6EEA77A3DD04C
:1043F800DCED076A082CDEED077AA6EEA77A35D041
:10440800DCED086A092CDEED087AA6EEA77A2DD035
:10441800DCED096A0A2CDEED097AA6EEA77A25D02A
:10442800DCED0A6A0B2CDEED0A7AA6EEA77A1DD01F
:10443800DCED0B6A0C2CDEED0B7AA6EEA77A15D014
:10444800DCED0C6A0D3CDEED0C7AA6EEA77A0DD0F9
:10445800DCED0D6A012CDEED0D7AA6EEA77A05D00B
:10446800DEED0E6ADCED0E7AA6EEA77AA5EC017AEF
:10447800AF424A443FF60AAF5BB1169A4AB1D0ED53
:10448800007AB3EC017A77EE877AE0EC017A87421A
:10449800F5D1BDEC0C8BBDE8F08F344696468C46C2
:1044A8006CE700BF00000000884210D07AB1884253
:1044B80000EB02030CD28B420AD983420A4406D984
:1044C80013F9011D834202F8011DF9D170477047A5
:1044D8008B0702D108E0002A4DD010F9013B013AC0
:1044E80001F8013B8B07F6D12DE9F0415FEA121E76
:1044F8005ED040EA01035B073ED10EF1FF33012B8A
:104508003AD900F110034FEA0E1401F1100C03EB35
:104518000E1E10330CF1100C13ED086B13ED067B17
:1045280073450CED086B0CED067BF2D1C2F38103E9
:104538002144204402F003026BB104680C605C1E45
:1045480005D04568012C4D6001D084688C6000EB73
:10455800830001EB830162B190F90030013A0B70DE
:1045680007D090F90130012A4B7002D090F902303F
:104578008B70BDE8F08170474FEA0E140B4601EBD3
:104588000E1E8446DCF800801033DCF804700CF151
:10459800100C5CF8086C5CF8045C43F8108C43F869
:1045A8000C7C43F8086C43F8045C9E45EAD1BDE7EF
:1045B800930802F00302BFE7C0F34343022B50D035
:1045C80020F07E42294B9A420BD01CDC284B9A42A1
:1045D80007D00BDD274B9A4203D003F5FA339A42F2
:1045E80031D1134600F0D04018437047A3F58063DB
:1045F8009A42F6D02CDD204B00F0D0409A4218BFEA
:104608004023184370471D4B9A42EAD00EDD1C4BDD
:104618009A42E6D003F57E039A42E2D0194B00F0A5
:10462800D0409A4218BF402318437047A3F58063CF
:104638009A42D6D007339A42D3D0A3F287339A420C
:1046480018BF4023CEE7104B9A4218BF4023C9E752
:10465800A3F580639A42C4D080339A4218BF40239E
:10466800C0E70A4B034043F48023BBE740008400C3
:104678004008040040100400470404004008840077
:10468800401084004F0884004F080400FF3F80005A
:1046980019B3C0F3C613C0F34342C0F3415CC01161
:1046A80003FB01F1042A01F1070121F0070121FAB6
:1046B8000CF10BD0082A02D00731C808704700F067
:1046C8007F0001EB00210731C808704700F07F0028
:1046D80001EB00110731C80870470846704700BF52
:1046E800120242EA014242EA00607047704700BF86
:1046F800143001F07FB900BF253001F08DBA00BF3A
:10470800F0B5032399B000270125129306462C4BD8
:1047180009A81595CDE90E7340F20453ADF8403061
:10472800284BCDE91357099301F08CF909A801F03A
:1047380065FA002836D1244B04AF04460090CDF822
:1047480042301023394604958DF820301F4BCDE9AF
:104758001650CDE906506846059301F0DDFB0823A5
:10476800009A01A909A8ADF804508DF806400994EB
:104778000295039300F0E4F800230EA9384630248C
:10478800049302F091F903224FF07E5309A906F130
:1047980014000B930C93CDE90942049A01F0EAF84E
:1047A80019B0F0BD40F60132074B169704AFADF8CB
:1047B80024200998CDF84230179500F081F8DBE7FE
:1047C8000402040403030001040604030704010BA4
:1047D8002DE9F04304462DED028B83B0002948D023
:1047E800012140F2011200230091ADF804208DF858
:1047F8000630304A0126304B271D304904F129087C
:10480800626040F20272A36040F60663E16004F160
:1048180025092682A4F8252084F82760A4F82930E1
:1048280084F82B6002F0CCFC6946054648B304F1D5
:1048380030008DF8066002F021FC072D34D104F118
:1048480014052046FFF75CFF284601F0CFF82846FC
:10485800B0EE408A01F0C6F8D0ED007AF8EE677A3B
:1048680088EE277A84ED0E7A03B0BDEC028BBDE8A2
:10487800F08340F2011300918DF80610ADF8043072
:10488800B7E704F1300002F0F9FB3946204601F0A1
:104898008BFD484601F0D6F8404601F0D3F804F104
:1048A800120000F077F9CAE73946204601F07CFD8E
:1048B800C5E700BF0508050905070506050A060638
:1048C80010B584B003460124ADF8040003A8ADF880
:1048D8000C30ADF80E4001F0B5F8214603A801F000
:1048E8009BF9204602F0FEFA002103A801F094F992
:1048F800204602F0F7FA214603A801F08DF904B02A
:1049080010BD00BF10B5C2F3002384B00C46017C73
:104918008DF80D2043EA4402FA2402238DF80C2076
:1049280003AA009401F08EFB18B10124204604B0BC
:1049380010BD04460A2002F0D5FA204604B010BD86
:10494800034670B543F8042B044684B007C983E8CE
:104958000700A37983B91A210B461E22FA2523746E
:104968002046ADF80C20022303AA009501F06AFB4B
:1049780028B1012004B070BD1B210B46EDE70A20C9
:1049880002F0B0FA4FF4B85200950223ADF80C20AB
:10499800204603AA217C01F055FB0028E9D10A2012
:1049A80002F0A0FA41F2027200950223ADF80C2041
:1049B800204603AA217C01F045FB0028D9D10A2012
:1049C80002F090FA042200950223ADF80C2020464C
:1049D80003AA217C01F036FB0028CAD10A2002F084
:1049E80081FA062200950223ADF80C20204603AA7E
:1049F800217C01F027FB0028BBD10A2002F072FAC3
:104A080041F2082200950223ADF80C20204603AAA3
:104A1800217C01F017FB0028ABD10A20064602F0E2
:104A280061FA0095022303AA217C2046ADF80C60A8
:104A380001F008FB00289CD1304602F053FA00959B
:104A480022790C232046002A8DF80C3003AA4FF057
:104A5800020314BF622142218DF80D10217C01F060
:104A6800F1FA002885D1304602F03CFA2279D4E9DF
:104A780002310B43DBB20AB943F0400362790AB151
:104A880043F020030E22FA258DF80D3020460095BC
:104A980002238DF80C2003AA217C01F0D3FA002808
:104AA8007FF467AF0A2002F01DFA10220095022356
:104AB800ADF80C20204603AA217C01F0C3FA002897
:104AC8007FF457AF0A2002F00DFA12210095022355
:104AD800ADF80C1003AA217C204601F0B3FA002897
:104AE8007FF447AF0A2002F0FDF901220921204690
:104AF800FFF708FF003818BF01203BE7F0B5102387
:104B080087B0234C012200250126002702A9204650
:104B18000195CDE902234FF48052CDE9046708F0EE
:104B280027FB642002F0F2FD02A94FF480522046D0
:104B3800CDE9046702261027CDE9026708F018FBC3
:104B48000322102302A92046CDE9022300230422D0
:104B5800CDE904234FF4805208F00AFB40F23223D7
:104B6800042202A9019310232046CDE90223019AC9
:104B7800012305924FF48052049308F0F9FA40F6A5
:104B88000601204608F014FB284607B0F0BD00BF18
:104B9800C41100241C4B00221C494FF0400C30B5B6
:104BA800054689B00220596007219A601A620124DB
:104BB800DA620A224FF4006EDC6006922022CDE908
:104BC800000104200821CDE9020103201021CDE9CC
:104BD800040108206946C3E904024FF4C072181D95
:104BE800C3E906C24FF48052C3E909E208F096FA15
:104BF80038B92846FFF782FF003818BF012009B0EE
:104C080030BD204609B030BDC011002440410052DB
:104C1800614A0021D0B513688EB00A91002B40F08C
:104C2800B9805E4B01214FF683700C24116002217C
:104C3800D3F8D4200026032742F48052C3F8D420A6
:104C4800D3F8D42002F480520092009AD3F8E020DE
:104C580042F01002C3F8E020D3F8E02002F010027E
:104C68000192019AD3F8E02042F04002C3F8E02014
:104C7800D3F8E02002F040020292029AD3F8E02032
:104C880042F00802C3F8E020D3F8E02002F008025E
:104C98000392039AD3F8E02042F48072C3F8E0202C
:104CA800D3F8E02002F480720492049AD3F8E0204A
:104CB80042F08002C3F8E020D3F8E02002F080023E
:104CC8000592059AD3F8E02042F02002C3F8E020CC
:104CD800D3F8E02002F020020692069AD3F8E020EA
:104CE80042F00402C3F8E020D3F8E0300C9403F05B
:104CF800040307930323079A0B93CDE9080108A936
:104D0800274803F0A9FD48F23712022308A92548CD
:104D18000C94CDE90823CDE90A6703F09DFD4CF218
:104D28000372022308A920480C94CDE90823CDE991
:104D38000A6703F091FD40F2FF62022308A91B48AD
:104D48000C94CDE90823CDE90A6703F085FD4FF6F9
:104D58000C72022308A916480C94CDE90823CDE962
:104D68000A6703F079FD4FF63F02022308A91148AC
:104D78000C94CDE90823CDE90A6703F06DFD2022E4
:104D8800022308A90A480C94CDE90A67CDE908234B
:104D980003F062FD0EB0D0BDBC11002400440258DF
:104DA8000010025800180258000C0258002002583F
:104DB800001C0258001402582DE9F04FDFF8108447
:104DC80006460D46144608F118002DED028B89B0F1
:104DD80000AF01F061FFD8F8183073B3D8F81C3071
:104DE800D8F80490002B43690BBF4FF0080A4FF026
:104DF800100A4FF0020B4FF0040BB9F1000F2AD044
:104E0800A200EA46012B02F1070222F00702ADEBED
:104E1800020D6846ADEB020D694600F03F81022B9A
:104E280000F0D680002B6FD02246C847D5462437DD
:104E3800BD46BDEC028BBDE8F08FD8F81C30002BC6
:104E4800F5D0D8F804904FF0080A4FF0020B4369E8
:104E5800B9F1000FD4D1FB61D8F80030BB61002B49
:104E6800E5D0D54801F08AFF6B46BBF1020F7861A7
:104E780008EE103AFB6900F083816A465146A2EBBE
:104E8800C40295466200EA46B2FBFBF2AAEBC400F4
:104E980085460AEB8200EE46F861ADEB010DF86934
:104EA8000EEB820CC7F810C0EC46ADEB010D00EB21
:104EB8008201CCF80400CCF8081001EB82013869B3
:104EC800E946CCF80C1000EB8201CCF800A001EB0D
:104ED8008202C9E900E0C9E90212012B00F06483EB
:104EE800022B00F06C82002B00F08081620849469A
:104EF8006046BB69984718EE103A24379D46BD4670
:104F0800BDEC028BBDE8F08F002C8DD01A46D8ED91
:104F18000C6A9FEDB27A8446331D36F922E00CF113
:104F2800080C07EE90EA33F922E00232F8EEE77A4D
:104F3800944267EE877A67EEA67A4CED027A07EE1E
:104F480090EAF8EEE77A67EE877A67EEA67A4CED94
:104F5800017AE2D8F9612246C847984ED8ED0D6A21
:104F68000020F9692B1D9FED9E7A9FED9E6ADFED6B
:104F78009E5A22E0F4EEC67AF1EE10FAC0F2C88426
:104F880047F6FE72D1ED017A45F8202066EEA77A41
:104F9800F4EEC77AF1EE10FA40F2F080F4EEC67A39
:104FA800F1EE10FAC0F2D58447F6FE7243F82020DD
:104FB8000230083184427FF639AFD1ED007A66EECF
:104FC800A77AF4EEC77AF1EE10FAD3D83246D9E7C9
:104FD800002C3FF429AFD8ED0C6A84469FED787A0F
:104FE8000022331D8E4656F822100CF1080C07EEED
:104FF800901A53F822100232F8EEE77A944267EEDC
:10500800877A67EEA67A4CED027A07EE901AF8EEE8
:10501800E77A67EE877A67EEA67A4CED017AE2D8EE
:1050280071462246C7F81CE0C847664ED8ED0D6A9F
:105038000020F9692B1D9FED6A7A9FED6A6ADFF8F7
:1050480094C120E0F4EEC67AF1EE10FAC0F2798449
:105058003246D1ED017A45F8202066EEA77AF4EEC3
:10506800C77AF1EE10FA40F28780F4EEC67AF1EED4
:1050780010FAC0F25E84324643F82020023008312C
:1050880084427FF6D3AED1ED007A66EEA77AF4EECD
:10509800C77AF1EE10FAD5D86246DAE7002C3FF469
:1050A800C3AED8ED0C6A86469FED477A4FF0000CE8
:1050B800331D56F82C200EF1080E82F40002A2F5DA
:1050C800000207EE902A53F82C200CF1020CF8EE9F
:1050D800E77A82F400026445A2F5000267EE877A57
:1050E80067EEA67A4EED027A07EE902AF8EEE77A96
:1050F80067EE877A67EEA67A4EED017AD9D8F9611C
:105108002246C847314ED8ED0D6A0020F9692B1D9B
:105118009FED337A9FED336ADFF8BCC01FE0F4EEF1
:10512800C67AF1EE10FAC0F2FC833246D1ED017A6C
:1051380045F8202066EEA77AF4EEC77AF1EE10FA69
:1051480018D9F4EEC67AF1EE10FAC0F2DA833246D4
:1051580043F820200230083184427FF667AED1ED53
:10516800007A66EEA77AF4EEC77AF1EE10FAD6D88E
:105178006246DBE76246EBE762467DE7324615E7C3
:10518800A100D6466208073121F00701ADEB010DF9
:10519800EA46ADEB010D6946ADEB0E0D0AEB820058
:1051A800EC46ADEB0E0D01EB8202F861E946CCE965
:1051B80000A0C9E9001290E6141200240280FFFF43
:1051C800000000300082FF7F0000003482FF7F0073
:1051D800F8110024007E00807E0080FF0000003867
:1051E80004FF7FBF04FF7F3F00FEFF46002C00F056
:1051F800C982BBF1020FD8F8242000F0FA8279693D
:10520800C7F8049002EB810E5FED0C5A8A00DCF8B7
:1052180008100EF104007A611A46DCF80C303B6184
:10522800331DD7F810903D61FD69C7E902CB8C4664
:10523800834636F92210D8ED0C7A06EE101A33F9A7
:10524800221006EE901A3EF92210B8EEC66A07EE52
:10525800101AF8EEE66A3BF92210B8EEC77A26EE85
:10526800256A66EEA56A27EE257A26EE276A66EE97
:10527800A76A27EE277A07EE901A51080232F8EE4D
:10528800E77A0AEB8100944280ED006A05EB810021
:1052980067EEA57AC0ED006A0CEB810009EB81018D
:1052A80080ED007A98ED0C7A67EE877AC1ED007A86
:1052B800BFD8D7F804903D69D7E902CB60466208A9
:1052C800BB6949469847D8F82C307A69D8ED0D6AF9
:1052D8001A441FED3D7A1FED3D6A2B1D904602F1E1
:1052E800040A5FED3F5A0022A84ED9E900EC51E0CC
:1052F800F4EEC67AF1EE10FAC0F2C78247F6FE70F5
:1053080045F822000CEB0100D0ED007A66EEA77A92
:10531800F4EEC77AF1EE10FA4BD9F4EEC67AF1EE54
:1053280010FAC0F2BA8247F6FE70BBF1020F43F8DA
:1053380022002BD0D9F808000844D0ED007A66EE98
:10534800A77AF4EEC77AF1EE10FA36D9F4EEC67AF7
:10535800F1EE10FAC0F2CD8247F6FE7048F822004E
:10536800D9F80C000144D1ED007A66EEA77AF4EE84
:10537800C77AF1EE10FA1ED9F4EEC67AF1EE10FAF9
:10538800C0F2AF8247F6FE714AF822100232944208
:105398007FF6B1AD51080EEB81008900D0ED007A9F
:1053A80066EEA77AF4EEC77AF1EE10FAA0D8304686
:1053B800A6E73046B9E73146E6E73046CEE7002CA7
:1053C80000F0E081BBF1020FD8F8243000F0E18151
:1053D8007A69DCF8081003EB820EC7F80490930092
:1053E800DFED6B5A0EF1040000227B61DCF80C3013
:1053F8003B61331DD7F810903D61FD69C7E902CBC9
:105408008C46834656F82210D8ED0C7A07EE101A0F
:1054180053F82210B8EEC76A07EE101A5EF8221089
:10542800F8EEC76A07EE101A26EE256A5BF8221016
:10543800B8EEC77A66EEA56A26EE276A27EE257AC1
:1054480066EEA76A27EE277A07EE901A510802320D
:10545800F8EEE77A0AEB8100944280ED006A05EBEA
:10546800810067EEA57AC0ED006A0CEB810009EBBC
:10547800810180ED007A98ED0C7A67EE877AC1EDAC
:10548800007ABFD8D7F804903D69D7E902CB6046C7
:105498006208BB6949469847D8F82C307A69D8ED34
:1054A8000D6A1A449FED3E7A9FED3E6A131D92469F
:1054B800DFF8E4C00022FB612B1D364ED9E9008ECF
:1054C8004EE0F4EEC67AF1EE10FAC0F2FC813046F6
:1054D80045F822000EEB0100D0ED007A66EEA77ABF
:1054E800F4EEC77AF1EE10FA49D9F4EEC67AF1EE85
:1054F80010FAC0F2EF813046BBF1020F43F82200E8
:105508002AD0D9F808000844D0ED007A66EEA77AC8
:10551800F4EEC77AF1EE10FA35D9F4EEC67AF1EE68
:1055280010FAC0F2C98130464AF82200D9F80C00B6
:105538000144D1ED007A66EEA77AF4EEC77AF1EE6F
:1055480010FA1ED9F4EEC67AF1EE10FAC0F2AD8167
:105558003146F86940F82210023294427FF6CBAC0B
:10556800510808EB81008900D0ED007A66EEA77A31
:10557800F4EEC77AF1EE10FAA3D86046A8E76046C1
:10558800BAE76146E5E76046CEE700BF0280FFFF65
:10559800000000300082FF7F007E008000000034A1
:1055A80004FF7FBF04FF7F3F002C00F0EB807A6987
:1055B8000021D8F82430C7F8109003EB820ED7F8F2
:1055C8001C909300FD610EF104021FED0C6A7B61D3
:1055D800331D154656F821204808D8ED0C6ABBF152
:1055E800020F82F40002A2F5000207EE902A53F897
:1055F800212082F40002B8EEE77AA2F5000227EE35
:10560800067A07EE902A0AEB8002F8EEE77A27EE90
:10561800267A67EE867A82ED007A09EB80024FEAF5
:10562800800067EEA67AC2ED007A27D05EF82120C6
:1056380082F40002A2F5000207EE902A55F8212014
:1056480082F40002B8EEE77AA2F5000227EE067AA5
:1056580007EE902ADCF80820F8EEE77A024427EEF5
:10566800267A67EE867A82ED007A98ED0C7ADCF875
:105678000C2067EE877A0244C2ED007A02318C4230
:10568800A8D8D7F8109060466208BB694946FD69FA
:105698009847D8F82C307A69D8ED0D6A1A441FED6E
:1056A800407A1FED406A131D9246DFF8C4C20022FB
:1056B800FB612B1DAB4ED9E9008E4EE0F4EEC67AA5
:1056C800F1EE10FAC0F2C580304645F822000EEB24
:1056D8000100D0ED007A66EEA77AF4EEC77AF1EE13
:1056E80010FA49D9F4EEC67AF1EE10FAC0F2BF808A
:1056F8003046BBF1020F43F822002AD0D9F808003F
:105708000844D0ED007A66EEA77AF4EEC77AF1EE97
:1057180010FA35D9F4EEC67AF1EE10FAC0F2AE807E
:1057280030464AF82200D9F80C000144D1ED007A3D
:1057380066EEA77AF4EEC77AF1EE10FA1ED9F4EE07
:10574800C67AF1EE10FAC0F28B803146F86940F85B
:105758002210023294427FF6CEAB510808EB81004A
:105768008900D0ED007A66EEA77AF4EEC77AF1EEFA
:1057780010FAA3D86046A8E76046BAE76146E5E7AD
:105788006046CEE7224649466046BB699847FFF720
:10579800B2BBC7F810B0002298ED0C6A331DDFEDDC
:1057A800726AD7F81CB0786956F8221007EE901A7A
:1057B80053F82210B8EEE77A07EE901A5108023231
:1057C800F8EEE77A27EE267A0AEB810E94420BEB85
:1057D800810167EEA67A27EE067A67EE867A8EED65
:1057E800007AC1ED007ADFD88300D7F810B07B616A
:1057F8004DE61A46C7F810B098ED0C6A331DDFED78
:105808005B6AD7F81CB0786936F9221007EE101ACF
:1058180033F9221007EE901AB8EEC77A510802320F
:10582800F8EEE77A27EE267A0AEB810E94420BEB24
:10583800810167EEA67A27EE067A67EE867A8EED04
:10584800007AC1ED007ADFD88300D7F810B07B6109
:1058580034E5F0EE675AFEEEE45A15EE900A34E7A6
:10586800F0EE675AFEEEE45A15EE901A6EE7F0EE87
:10587800675AFEEEE45A15EE900A3AE7F0EE675AD8
:10588800FEEEE45A15EE900A4BE767EEA57AFDEEB8
:10589800E77A17EE900A00B232E567EEA57AFDEED8
:1058A800E77A17EE900A00B23FE5F0EE675AFEEE8F
:1058B800E05A15EE901A4CE6F0EE675AFEEEE05A02
:1058C80015EE900A30E6F0EE675AFEEEE05A15EE55
:1058D800900AFDE5F0EE675AFEEEE05A15EE900AE2
:1058E8000AE667EEA57AFDEEE77A17EE901A09B296
:1058F8004AE567EEA57AFDEEE77A17EE900A00B260
:105908002CE5F0EE675AFEEEE45A15EE902A1FE4F5
:1059180067EEA57AFDEEE77A17EE902A12B2FFF746
:1059280031BBF0EE675AFEEEE45A15EE902AFFF707
:10593800FDBBF0EE675AFEEEE05A15EE902AFFF72F
:105948009BBBF0EE675AFEEEE05A15EE902AFFF781
:1059580080BB67EEA57AFDEEE77A17EE902A12B2C1
:10596800FFF724BB82FF7F000000003000000038F2
:105978007E0080FF30B5184C154685B0046004F1F0
:10598800080EEC460FC98EE80F00D4ED047AF5EE48
:10599800C07A8CE80F00F1EE10FA1ADDB7EE006A53
:1059A80094ED057A27EE277AC6EE276A84ED0D7AFC
:1059B800C4ED0C6A6DB1204640F8185F01F06CF92F
:1059C800064903690020064A2162A262E36005B025
:1059D80030BD012005B030BDF81100240020003092
:1059E8000000003000680830704700BF00681830B9
:1059F80001F0B2B930B5046883B008480D46A36811
:105A0800A26A216A9B00009004F1180001F046F98F
:105A18000020C4E9000503B030BD00BFC14D000837
:105A280010B4074B4FF07E51302400220320196137
:105A38009C60D8605DF8044B5961C3E90622704741
:105A4800F81100248378022B30B504468FB037D084
:105A5800032B33D0012B31D000230A93E378012B99
:105A68002AD0022B28D000230B93002320460C9326
:105A780001F02AFD0546204601F02EFD2378099005
:105A8800082B13D8DFE803F01F3245586B7E91A42A
:105A98000500594BD3F8E02042F48072C3F8E020A7
:105AA800D3F8E03003F480730893089B09A92846CB
:105AB80002F0D2FE0FB030BD0B93D6E70A93CDE7C4
:105AC80011230A93CAE74C4B09A92846D3F8E020CA
